C00438325TTERG1199004350520CHarper, Scott Mr.                 Lockport          IL60441                                   112420100005000H8IL131190000004
C00441105TTERG1193007456620CMinnick, Walt C                   Boise             ID83714                                   120120100115707H8ID010900000005
C00441105TTERG1193007456620CMinnick, Walt C                   Boise             ID83714                                   011120110010976H8ID010900000006
C00448175TTERG1199003657720CDyer, Jane                        Easley            SC29641                                   010720110043900H8SC030540000003
